:020000020000FC
:100000000FEF01B900E000BB07B90FEF0FB126B148
:10001000203809F0FBCF02B926B1203009F0FBCF20
:100020001FB126B1203409F0FBCF12B926B1203020
:1000300009F0FBCF36B1313069F0323081F0343025
:1000400099F03830B9F03030A9F3303899F33034C2
:1000500089F3DCCF010F0E9449000C940600011BBC
:100060000E9449000C940600019F002D0E94490047
:100070000C94060030E00E9441000E9449000C945C
:100080000600011714F4032F0895011B33950C94F7
:1000900041000E945C0002B90E945C0012B836B1B7
:1000A000303811F00C94490036B172B9303011F08B
:1000B0000C945400B5CF089590E05FEF6FEF7FEFA1
:1000C0008FEF6A956030E9F77A957030E9F78A9595
:1000D0008030E9F75A95503089F793959A3069F74F
:0200E000089581
:00000001FF
